{
  "contractName": "Donaciones",
  "abi": [
    {
      "inputs": [],
      "stateMutability": "nonpayable",
      "type": "constructor"
    },
    {
      "anonymous": false,
      "inputs": [
        {
          "indexed": true,
          "internalType": "address",
          "name": "donante",
          "type": "address"
        },
        {
          "indexed": false,
          "internalType": "uint256",
          "name": "cantidad",
          "type": "uint256"
        }
      ],
      "name": "DonacionRecibida",
      "type": "event"
    },
    {
      "inputs": [
        {
          "internalType": "address",
          "name": "",
          "type": "address"
        }
      ],
      "name": "donaciones",
      "outputs": [
        {
          "internalType": "uint256",
          "name": "",
          "type": "uint256"
        }
      ],
      "stateMutability": "view",
      "type": "function",
      "constant": true
    },
    {
      "inputs": [],
      "name": "owner",
      "outputs": [
        {
          "internalType": "address",
          "name": "",
          "type": "address"
        }
      ],
      "stateMutability": "view",
      "type": "function",
      "constant": true
    },
    {
      "inputs": [],
      "name": "donar",
      "outputs": [],
      "stateMutability": "payable",
      "type": "function",
      "payable": true
    },
    {
      "inputs": [],
      "name": "obtenerBalance",
      "outputs": [
        {
          "internalType": "uint256",
          "name": "",
          "type": "uint256"
        }
      ],
      "stateMutability": "view",
      "type": "function",
      "constant": true
    },
    {
      "inputs": [
        {
          "internalType": "uint256",
          "name": "cantidad",
          "type": "uint256"
        }
      ],
      "name": "retirarFondos",
      "outputs": [],
      "stateMutability": "nonpayable",
      "type": "function"
    }
  ],
  "bytecode": "0x608060405234801561001057600080fd5b50336000806101000a81548173ffffffffffffffffffffffffffffffffffffffff021916908373ffffffffffffffffffffffffffffffffffffffff1602179055506106c9806100606000396000f3fe60806040526004361061004a5760003560e01c806313fc9b121461004f57806322d9a1ee14610059578063579bab9b146100845780638da5cb5b146100c1578063a32aa717146100ec575b600080fd5b610057610115565b005b34801561006557600080fd5b5061006e6101fe565b60405161007b9190610578565b60405180910390f35b34801561009057600080fd5b506100ab60048036038101906100a691906103a7565b610206565b6040516100b89190610578565b60405180910390f35b3480156100cd57600080fd5b506100d661021e565b6040516100e391906104fd565b60405180910390f35b3480156100f857600080fd5b50610113600480360381019061010e91906103d0565b610242565b005b60003411610158576040517f08c379a000000000000000000000000000000000000000000000000000000000815260040161014f90610558565b60405180910390fd5b34600160003373ffffffffffffffffffffffffffffffffffffffff1673ffffffffffffffffffffffffffffffffffffffff16815260200190815260200160002060008282546101a791906105a4565b925050819055503373ffffffffffffffffffffffffffffffffffffffff167f02968e8343c1291965bd721620439138c5fbb5c55751974ad09d4a07fed9f3bb346040516101f49190610578565b60405180910390a2565b600047905090565b60016020528060005260406000206000915090505481565b60008054906101000a900473ffffffffffffffffffffffffffffffffffffffff1681565b60008054906101000a900473ffffffffffffffffffffffffffffffffffffffff1673ffffffffffffffffffffffffffffffffffffffff163373ffffffffffffffffffffffffffffffffffffffff16146102d0576040517f08c379a00000000000000000000000000000000000000000000000000000000081526004016102c790610518565b60405180910390fd5b47811115610313576040517f08c379a000000000000000000000000000000000000000000000000000000000815260040161030a90610538565b60405180910390fd5b60008054906101000a900473ffffffffffffffffffffffffffffffffffffffff1673ffffffffffffffffffffffffffffffffffffffff166108fc829081150290604051600060405180830381858888f19350505050158015610379573d6000803e3d6000fd5b5050565b60008135905061038c81610665565b92915050565b6000813590506103a18161067c565b92915050565b6000602082840312156103b957600080fd5b60006103c78482850161037d565b91505092915050565b6000602082840312156103e257600080fd5b60006103f084828501610392565b91505092915050565b610402816105fa565b82525050565b6000610415602883610593565b91507f536f6c6f20656c2070726f706965746172696f2070756564652072657469726160008301527f7220666f6e646f730000000000000000000000000000000000000000000000006020830152604082019050919050565b600061047b601483610593565b91507f466f6e646f7320696e737566696369656e7465730000000000000000000000006000830152602082019050919050565b60006104bb601e83610593565b91507f4c6120646f6e6163696f6e206465626520736572206d61796f722061203000006000830152602082019050919050565b6104f78161062c565b82525050565b600060208201905061051260008301846103f9565b92915050565b6000602082019050818103600083015261053181610408565b9050919050565b600060208201905081810360008301526105518161046e565b9050919050565b60006020820190508181036000830152610571816104ae565b9050919050565b600060208201905061058d60008301846104ee565b92915050565b600082825260208201905092915050565b60006105af8261062c565b91506105ba8361062c565b9250827fffffffffffffffffffffffffffffffffffffffffffffffffffffffffffffffff038211156105ef576105ee610636565b5b828201905092915050565b60006106058261060c565b9050919050565b600073ffffffffffffffffffffffffffffffffffffffff82169050919050565b6000819050919050565b7f4e487b7100000000000000000000000000000000000000000000000000000000600052601160045260246000fd5b61066e816105fa565b811461067957600080fd5b50565b6106858161062c565b811461069057600080fd5b5056fea2646970667358221220afadd8f6c5688de8f83a5a9ae49e3ae384fce5122a4877fbf512509a5717820c64736f6c63430008000033",
  "immutableReferences": {},
  "source": "// SPDX-License-Identifier: MIT\npragma solidity ^0.8.0;\n\ncontract Donaciones {\n    address public owner;\n    mapping(address => uint) public donaciones;\n\n    event DonacionRecibida(address indexed donante, uint cantidad);\n\n    constructor() {\n        owner = msg.sender;\n    }\n\n    function donar() public payable {\n        require(msg.value > 0, \"La donacion debe ser mayor a 0\");\n        donaciones[msg.sender] += msg.value;\n        emit DonacionRecibida(msg.sender, msg.value);\n    }\n\n    function obtenerBalance() public view returns (uint) {\n        return address(this).balance;\n    }\n\n    function retirarFondos(uint cantidad) public {\n        require(msg.sender == owner, \"Solo el propietario puede retirar fondos\");\n        require(cantidad <= address(this).balance, \"Fondos insuficientes\");\n        payable(owner).transfer(cantidad);\n    }\n}\n",
  "sourcePath": "C:\\Users\\PC\\Desktop\\DonacionesBlockchain\\contracts\\Donaciones.sol",
  "compiler": {
    "name": "solc",
    "version": "0.8.0+commit.c7dfd78e.Emscripten.clang"
  },
  "schemaVersion": "3.4.16",
  "updatedAt": "2025-08-05T05:16:34.810Z",
  "networkType": "ethereum",
  "devdoc": {
    "kind": "dev",
    "methods": {},
    "version": 1
  },
  "userdoc": {
    "kind": "user",
    "methods": {},
    "version": 1
  }
}